:020000040800F2
:1040000030040020454100083148000813470008EB
:10401000DD470008F5450008554E00080000000087
:10402000000000000000000000000000FD49000842
:10403000F74500080000000089480008954A00087C
:104040005F4100085F4100085F4100085F410008D0
:104050005F4100085F4100085F4100085F410008C0
:104060005F4100085F4100085F4100085F410008B0
:104070005F4100085F4100085F4100085F410008A0
:104080005F4100085F4100085F4100085F41000890
:104090005F4100085F4100085F4100085F41000880
:1040A0005F4100085F4100085F4100085F41000870
:1040B0005F4100085F4100085F4100085F41000860
:1040C0005F4100085F4100085F4100085F41000850
:1040D0005F4100085F4100085F4100085F41000840
:1040E0005F4100085F4100085F4100085F41000830
:1040F0005F4100085F4100085F4100085F41000820
:104100005F4100085F4100085F4100085F4100080F
:104110005F4100085F4100085F4100085F410008FF
:104120005F4100085F4100085F4100085F410008EF
:10413000DFF80CD000F044F900480047754E000845
:10414000300400200648804706480047FEE7FEE7A7
:10415000FEE7FEE7FEE7FEE7FEE7FEE7FEE7FEE737
:10416000994A000831410008F0B480EA0102D20FF8
:104170004300B3EB410F02D20346084619464B00F9
:1041800042D0C30DDDB2C1F3C7542C1B202C35DA4D
:10419000C1F3160141F4000502B16D42C4F12006DD
:1041A00005FA06F125412844B3EBD05F23D0C2B114
:1041B000012CA0EBC35009DCF0BC4FF0004202EA36
:1041C000C35200F50000DBB200F0CCB8400000F1B3
:1041D000807000EBC350A0F1807040EAD1704900BC
:1041E00009E0490841EAC071A0EBC35000F50000A6
:1041F000400800EBC350F0BC00F0ABB851420123C3
:1042000003EB4101801AF6E7F0BC704781F00041F2
:10421000AAE780F00040A7E780EA010210B502F0AB
:104220000042400026D04B0023D04FEA106101EB42
:104230001361C0F35600C3F3560340F4000043F487
:104240000003A0FB0330A1F17F014FEA00401C04F2
:1042500001D000F1010050EA134001D44000491E92
:10426000C3B20C0604EBD010401C4008802B02D0D7
:1042700003E0002010BD20F00100002900DA00203A
:10428000104310BD80EA010202F0004330B430F068
:10429000004221F0004015D0A0B1C0F3C755C2F3D1
:1042A000C754C2F31601C0F31600651B41F40001A8
:1042B00040F400007D35814201D36D1C00E04900CF
:1042C000002D02DA30BC002070474FF400020024B9
:1042D000814201D3091A144352084FEA4101F7D130
:1042E00051B1814202D14FF0004105E002D24FF0BE
:1042F000010101E06FF0010104EBC55030BC18442E
:1043000000F027B8C10F80EAE0700844CA0796237E
:10431000002100F027B896230022114600F022B8B1
:1043200000F0004220F00040C10DC0F3160040F440
:1043300000007F2901DA00207047962903DCC1F1D3
:104340009601C84001E096398840002AF4D04042E6
:1043500070470029A8BF7047401C490008BF20F0E3
:104360000100704710B4B0FA80FC00FA0CF050EA7B
:10437000010404BF10BC704749B1CCF1200421FAFC
:1043800004F411FA0CF118BF012121430843A3EBF7
:104390000C01CB1D0106000A002BBEBF002010BC83
:1043A000704700EBC35010440029A4BF10BC7047F5
:1043B000401C490008BF20F0010010BC70470000FD
:1043C000064C074D06E0E06840F0010394E8070062
:1043D00098471034AC42F6D3FFF7AEFE9C4F00086E
:1043E000BC4F000810B586B04FF4004000F08CFAC6
:1043F0000121480200F09EFA154C204600F04EF8CC
:1044000000214FF46020CDE902018DF80410012055
:1044100000918DF805108DF810006946204600F0D7
:1044200077F80121204600F02FF8204600F0CEF862
:10443000204600F066F80028FAD1204600F0D5F8B2
:10444000204600F04DF80028FAD106B010BD00005B
:104450000024014010B50B4C0146032301222046E5
:1044600000F07AF80121204600F0B5F8022120463C
:1044700000F040F80028F9D02046BDE8104000F0D8
:1044800036B80000002401400029816802D041F0C4
:10449000010101E021F00101816070470D4910B573
:1044A000884202D1012144150AE00B49884202D119
:1044B0000121041504E0094988420AD10121CC03F5
:1044C000204600F043FA2046BDE81040002100F0ED
:1044D0003DBA10BD0024014000280140003C0140CD
:1044E000014600208968490700D501207047C06C4B
:1044F00080B270470246002012680A4200D00120B4
:104500007047014600208968090700D501207047DF
:1045100010B542680E4B0C791A400B6842EA04222F
:104520001343436082680B4B1A40D1E90243234393
:104530004C7942EA440213438360C26A097C22F444
:104540007002491EC9B242EA0151C16210BD0000A9
:10455000FFFEF0FFFDF7F1FF70B5072609290AD924
:10456000C568A1F10A0404EB4404A640B543A34086
:104570001D43C56007E0056901EB4104A640B54352
:10458000A3401D4305611F23072A09D2446B521E15
:1045900002EB820293409C4391400C43446370BD04
:1045A0000D2A09D2046BD21F02EB820293409C4376
:1045B00091400C43046370BDC46A0D3A02EB820261
:1045C00093409C4391400C43C46270BD816841F0AC
:1045D0000801816070470029816802D041F4A00180
:1045E00001E021F4A00181607047816841F004017D
:1045F00081607047FEE77047F0B5CC78002204F088
:104600000F03E40601D58C7823430C884FF00F0C80
:1046100014F0FF0F4FF0010E1AD005680E880EFA45
:1046200002F42640A6420FD196000CFA06F7BD43CD
:1046300003FA06F63543CE78282E02D0482E02D053
:1046400002E0446100E00461521C082AE6D30560E0
:104650000A88FF2A1DD94568002202F108060EFAD1
:1046600006F40E882640A6420FD196000CFA06F7F3
:1046700025EA070703FA06F5CE783D43282E00D138
:104680004461CE78482E00D10461521C082AE4D33C
:104690004560F0BDF0B5144C002801DAE36900E094
:1046A0006368420D120185B2C0F301579540C0F313
:1046B0000346032F05D0C2020AD50322B24093431A
:1046C00007E023F07062636823F07063636002E0C8
:1046D000AB4343F0706201B12A43002801DAE26182
:1046E000F0BD6260F0BD0000000001400246002005
:1046F00092680A4200D00120704741617047016111
:1047000070474FF6FF710180022181700421C17052
:104710007047FEE72DE9F0470620FFF79BFE40F6C5
:10472000B837B84201D9012400E000240520FFF782
:1047300091FEB84201D9012500E000250420FFF7D1
:1047400089FEB84201D9012600E000260320FFF7C8
:1047500081FEB84201D9012000E0002081460220FC
:10476000FFF778FEB846404501D9012700E0002751
:104770000120FFF76FFE404501D9012000E0002035
:10478000804644EA0500304340EA0900384350EAD5
:1047900008001ED06019811901EB0900C11901EB55
:1047A0000800FFF7B8FD824604EB450006EB460122
:1047B000014401EB890007EB8701014408EB480045
:1047C00001EB4000FFF7A7FD5146BDE8F047FFF7BA
:1047D00059BD0148BDE8F08700007F43FEE70000B7
:1047E00010B5084A0C4600284FF40071104602DA52
:1047F000FFF783FF01E0FFF782FF4FF080408487DF
:1048000010BD0000000C014010B5074A0C460028FE
:104810004FF48071104602DAFFF76FFF01E0FFF7F7
:104820006EFF0248048010BD000C014040000040B3
:1048300070470000024A114001430248016070477E
:1048400080FFFF1F08ED00E070B5FFF7E2FC0D4CA4
:1048500006462068FFF756FD3146FFF7DAFCA168EF
:10486000FFF7DAFC054631466068FFF7D5FC2946BC
:10487000FFF77AFC05463046FFF752FD20602846D8
:1048800070BD00000000002070470000F8B5012155
:10489000092000F04FF86846FFF733FF4FF44070EF
:1048A000ADF800000324164E8DF8024010258DF857
:1048B000035069463046FFF79FFE6846FFF721FF29
:1048C000A002ADF800008DF8024018208DF803001A
:1048D00069463046FFF790FE01210A48FFF7DAFEED
:1048E0006846FFF70EFFADF800508DF80240282013
:1048F0008DF8030069463046FFF77EFEF8BD0000E4
:10490000000C014000023000034A516821F440418C
:10491000014351607047000000100240044A002922
:10492000D16901D0014300E08143D16170470000AB
:1049300000100240044A0029916901D0014300E0BF
:10494000814391617047000000100240044A002931
:10495000D16801D0014300E08143D160704700007D
:1049600000100240214A10B55168214B11F00C0192
:1049700003D0042901D0082901D0036012E0516856
:10498000536801F470114FF0020413F4803F04EBFC
:10499000914102D053689B0301D5164B00E0144BA4
:1049A000594301605168144B01F0F00109095C5C46
:1049B0000168E1404160546804F4E064240A1C5D2D
:1049C00021FA04F48460546804F46054E40A1B5D22
:1049D000D940C1605268084B02F44042920B1B1F41
:1049E0009A5CB1FBF2F1016110BD000000100240C1
:1049F00000127A0000093D001C00002070470000F2
:104A0000224900200A6842F480320A604FF4A06311
:104A10000A6800F1010012F4003F01D19842F7D179
:104A20000868800330D51A48026842F0100202601C
:104A3000026822F003020260026842F00202026091
:104A40004868486048684860486840F4806048604A
:104A5000486820F47C104860486840F4E8104860DA
:104A6000086840F08070086008688001FCD54868DC
:104A700020F003004860486840F002004860486841
:104A8000C0F381000228FAD17047000000100240F4
:104A900000200240704700000F4810B5016841F047
:104AA0000101016041680D4A1140416001680C4AF2
:104AB00011400160016821F480210160416821F406
:104AC000FE0141604FF41F018160FFF799FF054926
:104AD0004FF00060086010BD001002400000FFF8B9
:104AE000FFFFF6FE08ED00E010B5012188B0084692
:104AF000FFF714FF01211848FFF7CCFD04A800F0D0
:104B0000FBF84FF40070ADF8160040F2E730ADF856
:104B10001400EF20ADF810004FF0804404A92046A7
:104B200000F09CF8684600F08FF80121ADF8021003
:104B30006021ADF800100021ADF80610694620464E
:104B400000F016F86946204600F04EF80121204694
:104B500000F004F808B010BD000318000029018817
:104B600002D041F0010101E021F001010180704714
:104B700030B5028C22F480720284028C8388848B8C
:104B800022F4007224F073050C882C430D892D0645
:104B900042EA15454A88120645EA1242104DA842DB
:104BA00002D0104DA84215D122F400654A8923F4A1
:104BB0004053120645EA124222F480658A881206A2
:104BC00045EA12428D892D0543EA1545CB891B051F
:104BD00045EA134383808483C9888187028430BD7A
:104BE000002C01400034014030B5028C22F4805288
:104BF0000284048C8288838B23F4E6450B881B0691
:104C000045EA134324F400550C89240745EA14446B
:104C10004D882D0744EA1545094CA04202D0094CA5
:104C2000A04205D122F480448A89920544EA1242C6
:104C300082808383C988A0F84010058430BD0000BD
:104C4000002C01400034014000210180418081801E
:104C5000C180018141818181C181704730B5028865
:104C60001B4C1C4DA0420DD0A8420BD0B0F1804F80
:104C700008D0194B984205D0184B984202D0184BD7
:104C8000984203D122F070034A881A43154B984288
:104C900006D0154B984203D022F44073CA881A43B9
:104CA00002808A8882850A880285A0420AD0A842AA
:104CB00008D00E4A904205D00D4A904202D00D4ACB
:104CC000904201D1097A01860121818230BD000024
:104CD000002C014000340140000400400008004066
:104CE000000C004000100040001400400040014053
:104CF00000440140004801404FF6FF7181800021CF
:104D00000180C180418001727047000030B585B0DC
:104D1000012144F20400FFF70DFE4FF40070ADF8DE
:104D2000100018208DF81300164D03248DF8124042
:104D300004A92846FFF760FC2915ADF810100420DF
:104D40008DF813008DF8124004A92846FFF754FC93
:104D50004FF4164000900020ADF80400ADF80600B6
:104D6000ADF80800ADF80C000C20074CADF80A00B7
:104D70006946204600F014F80121204600F006F8AC
:104D800005B030BD0008014000380140002981898C
:104D900002D041F4005101E021F4005181817047BB
:104DA00030B50D46018A85B004464CF6FF700140CF
:104DB000E88808432082A0894EF6F3110840A988AC
:104DC0002A8911436A8902431143A181A18A4FF6BE
:104DD000FF400140A8890843A0826846FFF7C2FD52
:104DE0001B48844201D1039800E00298A18909047C
:104DF000002900EBC00101EB0010296802DA4FEA3C
:104E0000410101E04FEA8101B0FBF1F06422B0FB07
:104E1000F2F14FEA01114FEA11136FF018056B43DD
:104E200000EB8300A3891D044FF0320306D503EB8A
:104E3000C000B0FBF2F000F0070005E003EB00104B
:104E4000B0FBF2F000F00F000843208105B030BD48
:104E500000380140FEE702E008C8121F08C1002A1E
:104E6000FAD170477047002001E001C1121F002AEB
:104E7000FBD170474FF480414803FFF7DBFCFFF79D
:104E800005FD00210120FFF7ABFC00210120FFF709
:104E9000BBFCFFF73BFFFFF727FEFFF7A3FA364CFB
:104EA00010212046FFF722FC0028F9D0344C33486B
:104EB000DFF8D0A06060DFF8D090DFF8D0804FF44A
:104EC0000005334F334E41F2883BA060FFF722FCD0
:104ED0002061504501D1606920612F49FFF7B4FC82
:104EE0000146E060484502DDC4F80C900AE0404607
:104EF000814202D9C4F80C8020E0A9421BDB304675
:104F0000814209DD3146E068FFF780F9FFF708FAD2
:104F100001464FF0FF3005E0FFF778F9FFF700FAA0
:104F200001460120FFF75CFCFA210120FFF76CFC31
:104F3000E068A84219DAE068B84209D90146384663
:104F4000FFF764F9FFF7ECF901464FF0FF3006E098
:104F50003146FFF709F9FFF7E3F901460120FFF7B2
:104F600053FCFA210120FFF73BFC5846401EFDD1BF
:104F700020696061AAE70000000C01400000614365
:104F80000000002000007F430000FA430000FAC345
:104F900000007AC300007A4300006040BC4F000864
:104FA000000000202C000000564E0008E84F0008CA
:104FB0002C00002004040000664E000800000000E1
:104FC00000000000000000000000000000000000E1
:104FD00000000000020406080000000001020304B3
:084FE0000102030406070809A1
:04000005080041317D
:00000001FF
