:020000040800F2
:1040000060090020ED410008F5450008ED45000875
:10401000F1450008C14400089B4C00080000000066
:10402000000000000000000000000000AD47000894
:10403000C5440008000000009546000881480008BB
:10404000074200080742000807420008074200082C
:10405000074200080742000807420008074200081C
:10406000074200080742000807420008074200080C
:1040700007420008074200080742000807420008FC
:1040800007420008074200080742000807420008EC
:1040900007420008074200080742000807420008DC
:1040A00007420008074200080742000807420008CC
:1040B0000742000807420008F948000807420008C4
:1040C00007420008074200080742000807420008AC
:1040D00007420008314A000807420008074200086A
:1040E00007420008074200080742000800F002F8F3
:1040F00000F05CF80AA090E8000C82448344AAF126
:104100000107DA4501D100F051F8AFF2090EBAE823
:104110000F0013F0010F18BFFB1A43F001031847FB
:1041200084230000A42300000A444FF0000C10F880
:10413000013B13F0070408BF10F8014B1D1108BF25
:1041400010F8015B641E05D010F8016B641E01F8C5
:10415000016BF9D113F0080F1EBF10F8014BAD1C15
:104160000C1B09D16D1E58BF01F801CBFAD505E033
:1041700014F8016B01F8016B6D1EF9D59142D6D38D
:10418000704700000023002400250026103A28BFB5
:1041900078C1FBD8520728BF30C148BF0B607047B9
:1041A0001FB502F023F81FBD10B510BD00F01EF9B9
:1041B0001146FFF7F5FF01F09FFB00F03CF903B457
:1041C000FFF7F2FF03BC00F003F90000EFF30980F2
:1041D000704780F309887047EFF30880704780F3D9
:1041E0000888704740BA7047C0BA7047094880478E
:1041F00009480047FEE7FEE7FEE7FEE7FEE7FEE7C9
:10420000FEE7FEE7FEE7FEE704480549054A064BE0
:104210007047000099480008ED4000086003002046
:104220006009002060050020600500200EB50646EC
:104230000D46144612A000F087F8304600F084F8CE
:1042400015A000F081F8284600F07EF814A000F0D8
:104250007BF800218DF80B100A210DF10A008DF872
:104260000A1007E0224694FBF1F401FB14223032DD
:1042700000F8012D002CF5DC00F066F800F05CF889
:104280002A2A2A20617373657274696F6E206661D1
:10429000696C65643A2000002C2066696C6520001A
:1042A0002C206C696E652000032A40F2308010F0EB
:1042B000030C00F0158011F8013BBCF1020F6244C1
:1042C00098BF11F801CB00F8013B38BF11F8013B52
:1042D000A2F1040298BF00F801CB38BF00F8013BFF
:1042E00011F0030300F03A80083AC0F0088051F85A
:1042F000043B083A51F804CBA0E80810F5E7121D7A
:104300005CBF51F8043B40F8043BAFF30080D20798
:1043100024BF11F8013B11F801CB48BF11F8012B64
:1043200024BF00F8013B00F801CB48BF00F8012B87
:104330007047704770477047002000F04FF8FFF754
:1043400033FF012000F044F810B5044602E0641C7D
:1043500000F036F820780028F9D110BD10B5203AC9
:10436000C0F00B80B1E81850203AA0E81850B1E82E
:104370001850A0E81850BFF4F5AF5FEA027C24BFE4
:10438000B1E81850A0E8185044BF18C918C0BDE8DB
:1043900010405FEA827C24BF51F8043B40F8043BA4
:1043A00008BF7047D20728BF31F8023B48BF11F859
:1043B000012B28BF20F8023B48BF00F8012B7047B3
:1043C00008B569468DF800000320ABBE08BD0000AB
:1043D00001491820ABBEFEE72600020010B500F030
:1043E00035F8BDE8104000F02CB87047754600F075
:1043F00045F8AE4605006946534620F0070085465D
:1044000018B020B5FFF700FFBDE820404FF00006D0
:104410004FF000074FF000084FF0000B21F00701AC
:10442000AC46ACE8C009ACE8C009ACE8C009ACE8EF
:10443000C0098D4670470446AFF300802046FFF761
:10444000BEFE002801D0FFF7C3BF704710B50021A2
:1044500002A000F017F8012010BD000053494741A9
:104460004252543A2041626E6F726D616C207465E5
:10447000726D696E6174696F6E000000004870476C
:104480000003002070B505460C460A2000E06D1CB4
:10449000FFF796FF35B128780028F8D102E0641CB8
:1044A000FFF78EFF14B120780028F8D1BDE87040E6
:1044B0000A20FFF785BF0000004870470403002072
:1044C00000BFFEE77047012080F3108800BF7047EF
:1044D000002080F3108800BF70472DE9F0410246AC
:1044E00000250026002000230024002791F803C0A7
:1044F0000CF00F0591F803C01CF0100F03D091F8D9
:1045000002C04CEA0505B1F800C01CF0FF0F31D025
:10451000146800202BE04FF0010C0CFA00F3B1F806
:1045200000C00CEA03069E4220D183004FF00F0C1E
:104530000CFA03F7BC4305FA03FC4CEA040491F8B7
:1045400003C0BCF1280F06D14FF0010C0CFA00FC9F
:10455000C2F814C00AE091F803C0BCF1480F05D1BD
:104560004FF0010C0CFA00FCC2F810C0401C0828E7
:10457000D1D31460B1F800C0BCF1FF0F34DD546832
:1045800000202EE000F1080C4FF0010808FA0CF3AF
:10459000B1F800C00CEA03069E4221D183004FF01F
:1045A0000F0C0CFA03F7BC4305FA03FC4CEA0404B5
:1045B00091F803C0BCF1280F05D100F1080C08FAEE
:1045C0000CF8C2F8148091F803C0BCF1480F07D171
:1045D00000F1080C4FF0010808FA0CF8C2F810803E
:1045E000401C0828CED35460BDE8F08100BFFEE730
:1045F00000BFFEE77047000070B5002100230F22C6
:10460000C4780CB3164C246804F4E064C4F5E06488
:10461000210AC1F10403CA40447804FA03F1847802
:104620001440214309010F4C0678A155047804F089
:104630001F050124AC4005786D114FF0E02606EB14
:104640008505C5F8004109E0047804F01F05012440
:10465000AC40054D0678761145F8264070BD000047
:104660000CED00E000E400E080E100E002490143DD
:10467000024A1160704700000000FA050CED00E0EE
:10468000024A0A400243024B1A60704780FFFF1F34
:1046900008ED00E07047000029B1064AD2690243E4
:1046A000044BDA6104E0034AD2698243014BDA61C8
:1046B000704700000010024029B1064A9269024387
:1046C000044B9A6104E0034A92698243014B9A6168
:1046D000704700000010024030B500210022002485
:1046E00000232D4D6D6805F00C0121B1042905D082
:1046F000082923D105E0294D056022E0274D0560FA
:104700001FE0254D6D6805F47012234D6D6805F4AA
:104710008034022505EB92421CB9214D55430560BA
:104720000BE01D4D6D6815F4003F03D01C4D554343
:10473000056002E0194D5543056002E0174D056024
:1047400000BF00BF144D6D6805F0F0010909154D5B
:104750006B5C0568DD4045600F4D6D6805F4E061F8
:10476000090A104D6B5C4568DD4085600A4D6D6837
:1047700005F46051C90A0B4D6B5C4568DD40C560AE
:10478000054D6D6805F44041890B074D6B5CC568AC
:10479000B5FBF3F5056130BD0010024000127A0050
:1047A00000093D000400002014000020704710B5EF
:1047B00000F002F810BD0000002100202E4A12680F
:1047C00042F480322C4B1A6000BF2B4A126802F46C
:1047D0000030491C10B9B1F5A06FF6D1264A126815
:1047E00012F4003F01D0012000E00020012842D156
:1047F000224A126842F01002204B1A601A461268D0
:1048000022F003021A601A46126842F002021A608D
:10481000194A5268184B5A601A4652685A601A462A
:10482000526842F480625A601A46526822F47C123E
:104830005A601A46526842F4E8125A601A461268E0
:1048400042F080721A6000BF0B4A126812F0007FBB
:10485000FAD0094A526822F00302074B5A601A46FE
:10486000526842F002025A6000BF034A526802F0E6
:104870000C02082AF9D170470010024000200240C3
:104880000448006820B103480068401E01490860E0
:10489000704700000000002010B51348006840F089
:1048A00001001149086008464068104908400E4957
:1048B0004860084600680E4908400B4908600846F1
:1048C000006820F4802008600846406820F4FE005C
:1048D00048604FF41F008860FFF769FF4FF00060E9
:1048E0000449086010BD0000001002400000FFF8FD
:1048F000FFFFF6FE08ED00E010B50121054800F0CD
:1049000026F828B10121034800F012F801F066F8FA
:1049100010BD00000008004021B1028842F0800272
:10492000028004E002884FF67F731A4002807047CD
:10493000CA430282704721B1028842F0010202801C
:1049400004E002884FF6FE731A400280704730B5CB
:104950000246002000230024158A05EA01039589F8
:1049600005EA010413B10CB1012000E0002030BDC4
:1049700010B51AB183890B43838104E08389CC434A
:10498000A4B22340838110BD818470470022028835
:104990001D4B98420ED01D4B98420BD0B0F1804F6A
:1049A00008D01B4B984205D01A4B984202D01A4BA4
:1049B000984204D14FF68F731A404B881A43174B15
:1049C000984207D0164B984204D04FF6FF431A4046
:1049D000CB881A4302808B8883850B8803850A4B1A
:1049E00098420BD0094B984208D00E4B984205D004
:1049F0000D4B984202D00D4B984201D10B7A0386A1
:104A00000123838270470000002C014000340140E4
:104A10000004004000080040000C0040001000406E
:104A200000140040004001400044014000480140A3
:104A300010B540F22551144800F06AF8012806D15B
:104A400000F0D4FF40F225510F4800F028F840F262
:104A500027710D4800F05CF8012806D100F0CEFF68
:104A600040F22771084800F01AF80821064800F0C3
:104A700042F8012806D10821034800F007F802484F
:104A800000F002F910BD00000038014001F400728E
:104A9000B2F5007F00D100BFCA430280704710B555
:104AA00000220023A1F510646A3C00D100BF0A1265
:104AB00001249440A3B2DC43048010BD10B502462B
:104AC0000020108A4FF2FF0318400B884C882343C4
:104AD0008C882343CC8823431843108210BD21B116
:104AE000828942F40052828104E082894DF6FF738C
:104AF0001A408281704702460020B1F5007F00D144
:104B000000BF13880B4201D0012000E00020704755
:104B100070B502460024002300250020A1F5106690
:104B20006A3E00D100BFC1F3421501F01F03012608
:104B300006FA03F3012D02D19689334006E0022DD7
:104B400002D1168A334001E0968A33400C120126C6
:104B500006FA04F41688344013B10CB1012000E0C9
:104B6000002070BDF0B5034600240026002500207B
:104B7000A1F510676A3F00D100BF1846C1F3421487
:104B800001F01F06012707FA06F5012C01D10C30B0
:104B900004E0022C01D1103000E014301AB1076893
:104BA0002F43076002E00768AF430760F0BD0000D5
:104BB0002DE9F04786B005460E460024A24600BF08
:104BC000A1460027B08900B100BF2F462C8A4CF6C1
:104BD000FF700440F08804432C82AC894EF6F31039
:104BE0000440B08831890843718908430443AC818B
:104BF000AC8A4FF6FF400440B0890443AC8201A860
:104C0000FFF76AFD1F48874202D1DDF810A001E0DE
:104C1000DDF80CA0A88910F4004F08D00AEBCA00F8
:104C200000EB0A1031684900B0FBF1F807E00AEB2D
:104C3000CA0000EB0A1031688900B0FBF1F864206B
:104C4000B8FBF0F004012009642101FB1089A88958
:104C500010F4004F08D0322000EBC900B0FBF1F097
:104C600000F00700044308E0322000EB0910642143
:104C7000B0FBF1F000F00F0004432C8106B0BDE85A
:104C8000F08700000038014001468888C0F3080022
:104C90007047C1F308028280704700BFFEE7000042
:104CA0002DE9F04180460C4615461E460027FFF7C9
:104CB0000AFC0A200B490870334607222946204681
:104CC00001F0D6F8012801D0032706E044F6206061
:104CD00001F03AF9012800D00327FFF7F9FB384625
:104CE000BDE8F081070100202DE9F04104460D46A2
:104CF00016460027FFF7E7FB13480088FF2800DC73
:104D000004E09D2211A119A0FFF790FA0E48008837
:104D1000032813DB0C4801881E48006800F04DFE94
:104D200060B91C4800680078207007480088801E21
:104D3000308018480068401C286000E00527FFF715
:104D4000C7FB3846BDE8F081FA0000202E2E5C55E6
:104D50005345525C6D6F646275735C61736369691E
:104D60005C6D6261736369692E63000075735263E1
:104D700076427566666572506F73203C204D425FC7
:104D80005345525F5044555F53495A455F4D415812
:104D900000000000F40000202DE9F04104460D461B
:104DA00016464FF00008FFF78EFB1748007818BB37
:104DB000681E1649086001201549088013480068DC
:104DC00004700846008830440880084601880F486F
:104DD000006800F0F2FD07460D490888411C0C4AA6
:104DE00011800C4909680F5401200B4908700121FA
:104DF000002000F027FE01E04FF00508FFF768FBF8
:104E00004046BDE8F0810000F900002000010020CC
:104E100004010020F4000020F800002010B5FFF786
:104E200052FB0021012000F00DFE00200349087014
:104E3000FFF74EFB002001F005F810BDF90000203F
:104E400010B5FFF740FB0021084600F0FBFD00F025
:104E50001DFEFFF73DFB10BD10B50024064800788D
:104E6000012806D1054800688047002002490870E3
:104E700000E00624204610BD38000020CC000020B1
:104E80002DE9F05F06460D464FF0000B28880528F7
:104E900048D170784FEA0029B07840EA090909F151
:104EA00001001FFA80F9F078040230790443012CE4
:104EB00035DBB4F5FA6F32DA37460020288001205E
:104EC00007F8010B2888401C288014F0070F08D031
:104ED0002046E11704EB5171C910491C01F0FF088D
:104EE00005E02046E11704EB5171C1F3C70807F84C
:104EF000018B2888401C28800023224649463846DA
:104F000000F076FC8246BAF1000F04D0504600F063
:104F100007FD834608E028884044288004E04FF0DD
:104F2000030B01E04FF0030B5846BDE8F09F2DE95D
:104F3000F05F06460D464FF0000B2888052847D144
:104F400070784FEA0029B07840EA090909F10100B8
:104F50001FFA80F9F078040230790443012C34DB25
:104F6000B4F5FA6F31DA374600202880022007F8BE
:104F7000010B2888401C288014F0070F08D0204619
:104F8000E11704EB5171C910491C01F0FF0805E05D
:104F90002046E11704EB5171C1F3C70807F8018BF4
:104FA0002888401C288022464946384600F024FCC8
:104FB0008246BAF1000F04D0504600F0B1FC83469F
:104FC00008E028884044288004E04FF0030B01E00B
:104FD0004FF0030B5846BDE8F09F2DE9F04705461A
:104FE0000C464FF0000A2088052837D168784FEA30
:104FF0000028A87840EA080808F101001FFA80F8A4
:10500000E87806022E79012E25DB7D2E23DC2F4643
:1050100000202080032007F8010B2088401C2080FE
:105020007006000E07F8010B2088401C208000232A
:1050300032464146384600F0E3FB8146B9F1000FA5
:1050400004D0484600F06CFC824609E0208800EB62
:105050004600208004E04FF0030A01E04FF0030A0D
:105060005046BDE8F0872DE9F04705460C464FF065
:10507000000A2088052837D168784FEA0028A878E8
:1050800040EA080808F101001FFA80F8E8780602F3
:1050900028790643012E24DB7D2E22DA2F460020BC
:1050A0002080042007F8010B2088401C2080700617
:1050B000000E07F8010B2088401C20803246414634
:1050C000384600F0EBFB8146B9F1000F04D04846AA
:1050D00000F026FC824609E0208800EB4600208094
:1050E00004E04FF0030A01E04FF0030A5046BDE828
:1050F000F0872DE9FC5F04460D46002000902888CB
:105100000A285DDB60784FEA002AA07840EA0A0AA4
:105110000AF101001FFA80FAE078060220790643BE
:1051200060794FEA002BA07940EA0B0B0BF10100EC
:105130001FFA80FBE0790702207A0743607A01902A
:10514000012E3BDB7D2E39DC012F37DB792F35DC5F
:1051500079000198814231D101233A46594604F140
:105160000A0000F04DFB8146B9F1000F1ED1A046A8
:1051700000202880172008F8010B2888401C288070
:105180007006000E08F8010B2888401C28800023B8
:1051900032465146404600F033FB8146B9F1000FDC
:1051A00004D12888022101FB06002880B9F1000FF4
:1051B00006D0484600F0B4FB009001E003200090C8
:1051C0000098BDE8FC9F000070B505460C460648F7
:1051D00002880649681CFFF767F803480088401CEE
:1051E0002080002070BD0000F0000020E0020020C0
:1051F0002DE9F84304460F464FF00008388805288B
:1052000029D160780502A0780543681C85B2207911
:10521000F0B9E078FF2801D0E078C8B900208DF817
:105220000100E078FF2803D101208DF8000002E0A2
:1052300000208DF8000001231A462946684600F038
:10524000D7FA06464EB1304600F06AFB804604E0CD
:105250004FF0030801E04FF003084046BDE8F88333
:105260002DE9F04104460F464FF000083888052824
:1052700012D160780502A0780543681C85B201232D
:105280001A462946E01C00F0BBFA064636B1304605
:1052900000F046FB804601E04FF003084046BDE8C1
:1052A000F0812DE9F05F05460E464FF0000B308887
:1052B000052839DD68780702A8780743781C87B28B
:1052C000E87804022879044395F805A014F0070F44
:1052D00008D02046E11704EB5171C910491C01F0B8
:1052E000FF0805E02046E11704EB5171C1F3C70840
:1052F000012C16DBB4F5F66F13DCD04511D1012378
:1053000022463946A81D00F073FA8146B9F1000F14
:1053100004D0484600F004FB834607E005203080B7
:1053200004E04FF0030B01E04FF0030B5846BDE8DB
:10533000F09F2DE9F04704460E464FF0000A3088F2
:10534000062828DB60780702A0780743781C87B21C
:10535000E07805022079054394F80590012D17DBCC
:10536000782D15DC6806000E484511D101232A4628
:105370003946A01D00F044FA8046B8F1000F04D071
:10538000404600F0CDFA824607E00520308004E078
:105390004FF0030A01E04FF0030A5046BDE8F087E2
:1053A0002DE9F04705460C4616461F46DDF82090CD
:1053B0004FF000081CB1012C01DBF72C02DD4FF08F
:1053C000020859E02E48047015B1012D42D120E0A9
:1053D0002C482D4908602D482D4908602D482E493C
:1053E00008602E482E49086000202E4908602E488B
:1053F0002E4908602E482F4908602F482F49086021
:105400004B463A4631461E48007800F007F9804680
:1054100023E02B481C4908602A481D4908602A4897
:105420001D49086029481E49086000201D49086080
:1054300027481E49086027481E49086026481F491A
:1054400008604B463A4631460D480078FFF728FC85
:10545000804602E04FF0020800BF00BFB8F1000F25
:105460000AD100F0E7FC10B94FF0030804E01B4834
:10547000057001201A4908704046BDE8F087000019
:10548000C5000020B5570008CC000020D9570008FF
:10549000D000002025570008C800002075560008DD
:1054A000D4000020D8000020D95F0008DC000020D4
:1054B00031610008E0000020AD600008E400002039
:1054C0001D4E0008414E0008994D0008E94C0008A7
:1054D000E55A0008CD5C0008615C0008C6000020A9
:1054E0003800002038B500254148007808B1062072
:1054F00038BD684600F08CFC012877D19DF800008B
:1055000030B1012805D0022818D003286DD16BE0F6
:105510006BE0384A38493948394B1B68984705468B
:105520005DB93648007837490978884202D0334857
:10553000007810B9022000F085FC56E02E48006883
:10554000007831490870012030490870002417E0C4
:105550002F4810F8340000B914E02D4810F834003A
:105560002949097888420AD1294800EBC400214919
:1055700042682148006890472449087002E0641C92
:10558000102CE5DB00BF1D48007858B31F48007899
:10559000C8B10020174908801B48007840F08001FE
:1055A000144802880088401C124B1880124800687A
:1055B000815416480278184601880088401C1880DB
:1055C0000D480068425413480078012800D100BFFC
:1055D00008480288084801680A4800780E4B1B6892
:1055E0009847054601E001E000BF00BF00207FE7CB
:1055F00038000020C2000020BC000020C0000020B5
:10560000D4000020C5000020C1000020C4000020FC
:105610003C000020C6000020C80000202DE9F04713
:1056200081460E4614461F464FF00008FEF74BFF1A
:105630003B4608222146304600F01AFC012802D0E1
:105640004FF003080FE0B4F5964F01D9232503E08E
:1056500060000749B1FBF0F5A8B200F075FC012825
:1056600001D04FF00308FEF733FF4046BDE8F08756
:10567000A07F17002DE9F04104460D4616464FF075
:1056800000080027FEF71FFF13480088FF2800DCF2
:1056900004E09D2211A118A0FEF7C8FD0E48008865
:1056A000042812DB0C4801881D4800F0AFF960B9EE
:1056B0001B480078207008480088C01E30801848B9
:1056C000401C28604FF0010800E00527FEF700FFAE
:1056D0003846BDE8F0810000360000202E2E5C55D3
:1056E0005345525C6D6F646275735C7274755C6D6A
:1056F000627274752E63000075735263764275662C
:10570000666572506F73203C204D425F5345525F77
:105710005044555F53495A455F4D415800000000C1
:10572000E00100202DE9F04105460E4617464FF0F6
:105730000008FEF7C8FE1A480078012829D1701E1B
:10574000184908600120184908801648006805704B
:1057500008460088384408800846018811480068D7
:1057600000F054F9044610490888411C0E4B19807A
:105770000E490C54221219460888411C19800B4905
:105780000A5401200A4908700121002000F05AF94A
:1057900001E04FF00508FEF79BFE4046BDE8F081B2
:1057A0002D0000203000002034000020E001002007
:1057B0002C00002010B5FEF786FE00200549087079
:1057C0000021012000F03EF900F076F9FEF780FE9E
:1057D00010BD00002D00002010B5FEF774FE002162
:1057E000084600F02FF900F051F9FEF771FE10BDE8
:1057F00010B50446012010BD03460120704700008B
:105800002DE9F04780460D46144699464FF0000AB0
:1058100046461E480078854233DB28191B49097823
:105820001B4A1278114488422BDC1A4800782F1A40
:10583000B9F1000F03D0B9F1010F21D10FE00BE056
:1058400039467F1C144A126832F81100FEF7CAFC70
:1058500026F8020B601E84B2002CF1DC10E00CE094
:1058600036F8020BFEF7BEFC82B238467F1C0A49AE
:10587000096821F81020601E84B2002CF0DC00BF03
:1058800001E04FF0010A5046BDE8F087D901002041
:10589000DB010020DD010020D4010020F0B503462B
:1058A0000020114D2D78A9421CDB8D180E4E367844
:1058B0000E4F3F783E44B54214DC0D4D2D784C1B05
:1058C0000DE00C4D35F814502D1203F8015B094D15
:1058D00035F8145003F8015B641C551EAAB2002A67
:1058E000EFDC00E00120F0BDD8010020DA0100204B
:1058F000DC0100200801002008B54FF48041480376
:10590000FEF7BEFE00204FF4164301221146009020
:10591000FFF746FDFFF7A0FA01E0FFF7E3FDFCE724
:10592000014621B1012904D0072906D103E0002056
:1059300005E0022003E0062001E0042000BF00BFD4
:105940007047000010B50446092C03DC04F1300058
:10595000C0B210BD0A2C05DB0F2C03DC04F13700AC
:10596000C0B2F6E740F2D11201A109A0FEF75EFC39
:105970002E2E5C555345525C6D6F646275735C618D
:10598000736369695C6D6261736369692E630000AA
:10599000300000000146302905DB392903DCA1F184
:1059A0003000C0B27047412905DB462903DCA1F174
:1059B0003700C0B2F6E7FF20F4E710B5024600203A
:1059C00003E012F8014B2318D8B20B00A1F1010437
:1059D000A1B2F6D14342D8B210BD000010B50248C2
:1059E0000068804710BD0000E400002010B50248A8
:1059F0000068804710BD0000DC00002010B50248A0
:105A00000068804710BD0000E000002070B502462D
:105A10000C46FF25FF2309E012F8010B80EA030181
:105A20000648405C80EA05030548455C2000A4F177
:105A30000106B4B2F0D143EA052070BDFA61000856
:105A4000FA62000870B505460C46012D06D1012208
:105A500040F225510C48FFF785F805E0002240F29E
:105A600025510948FFF77EF8012C06D1012240F2AA
:105A700027710548FFF776F805E0002240F227710C
:105A80000148FFF76FF870BD0038014010B50021E4
:105A90000848FEF750FF00210648FEF775FF002278
:105AA00001210448FEF764FF01210248FEF740FF90
:105AB00010BD00000008004010B501210848FEF7A5
:105AC00037FF012211460648FEF752FF0021044825
:105AD000FEF75AFF01210248FEF72DFF10BD00001E
:105AE0000008004038B500254848007800B904E0B7
:105AF000E42247A14EA0FEF799FB684600F0AEF9FC
:105B00005248007800286FD0012802D002287AD1AC
:105B100046E0FFF7D1FF9DF800003A2805D10020AC
:105B20004B4908704B49088039E09DF800000D286A
:105B300003D102204549087031E09DF80000FFF7CD
:105B400029FF04464248007810B1012826D114E00C
:105B500040480088FF280ADC2007000E3E490968FB
:105B60003C4A1288885401203949087016E0002008
:105B700036490870FFF78AFF10E037490968354A4F
:105B80001288881801782143017032480088401C2F
:105B90003049088000202E49087000BF00BF32E065
:105BA0009DF800002D490978884209D1FFF76EFF62
:105BB000002026490870012000F044F9054611E054
:105BC0009DF800003A280AD1002021490870214997
:105BD000088001201D490870FFF76EFF02E00020D9
:105BE0001A4908700FE0FFE79DF800003A2809D134
:105BF000FFF762FF0020174908801549087001204F
:105C00001249087000BF00BF284638BDF8000020C8
:105C10002E2E5C555345525C6D6F646275735C61EA
:105C2000736369695C6D6261736369692E63000007
:105C300065536E645374617465203D3D2053544137
:105C400054455F54585F49444C450000F90000201A
:105C5000FC000020FA000020F400002007010020D2
:105C600010B510480078012802D0022805D100E0C4
:105C700000BF00200B4908700FE00A480078012897
:105C800003D008480078022800D105E04FF4D47210
:105C900005A10D48FEF7CAFA00BF00BFFFF7F6FEE8
:105CA000002010BDF90000202E2E5C555345525C9B
:105CB0006D6F646275735C61736369695C6D626169
:105CC000736369692E6300006064000870B5002585
:105CD0003A48007800B905E04FF4A87238A140A016
:105CE000FEF7A4FA45480078052864D2DFE800F002
:105CF0005E030E474F003A24204600F01BF90220B5
:105D00003E49087000203E49087054E03D48008834
:105D100000282DDD3A48007810B1012827D10DE088
:105D20003949096809780811FFF70CFE0446204636
:105D300000F000F901203249087018E03249096882
:105D4000097801F00F00FFF7FDFD0446204600F042
:105D5000F1F82D480068401C2B49086000202849B4
:105D6000087028480088401E2649088000BF05E0CA
:105D70000D2000F0DFF80320204908701BE02348C5
:105D8000007800F0D7F804201C49087013E00020C8
:105D90001A490870032000F055F80546002101203B
:105DA000FFF750FE00201549087004E00021012093
:105DB000FFF748FE00BF00BF284670BDF900002075
:105DC0002E2E5C555345525C6D6F646275735C6139
:105DD000736369695C6D6261736369692E63000056
:105DE000655263765374617465203D3D2053544180
:105DF00054455F52585F49444C450000F80000206C
:105E0000FC00002004010020000100200701002008
:105E100001460020054A127832B1054A12780A700C
:105E20000022024B1A70012070470000DF010020A1
:105E3000DE010020002002490870012070470000A8
:105E4000DF01002001460120024A10700248017063
:105E500001207047DF010020DE01002010B504465C
:105E60000248FEF711FF2070012010BD00380140EC
:105E7000F0B589B005460C4616461F46012144F28E
:105E80000500FEF719FC4FF40070ADF82000032068
:105E90008DF8220018208DF8230008A92348FEF76A
:105EA0001CFB4FF48060ADF8200004208DF8230027
:105EB00008A91E48FEF711FB04940020ADF8140059
:105EC000ADF81600ADF81800ADF81C000C20ADF8C8
:105ED0001A000020ADF80800ADF80A004FF4007079
:105EE000ADF80C000020ADF80E0002A91048FEF736
:105EF000E5FD04A90E48FEF75BFE4FF4C060FEF717
:105F0000B5FB25208DF8040000208DF805008DF8E4
:105F1000060001208DF8070001A8FEF76DFB0121A6
:105F20000348FEF7DCFD012009B0F0BD0008014088
:105F30000038014010B5044621460248FEF7A9FE8C
:105F4000012010BD003801407FB504460025012125
:105F50000420FEF7A1FB1E48006844F62061B0FB58
:105F6000F1F0401E85B2ADF80840ADF804500020B5
:105F7000ADF80A00ADF8060001A91648FEF706FDC7
:105F800001211448FEF7C8FC4FF4C060FEF76EFB19
:105F90001E208DF8000000208DF8010003208DF8F0
:105FA000020001208DF803006846FEF725FB012161
:105FB0000848FEF7BDFC002201210648FEF7D8FC88
:105FC00000210448FEF7B7FC012004B070BD0000BA
:105FD000180000200008004038B50024214800784F
:105FE00000B904E0E72220A126A0FEF71FF96846C9
:105FF000FFF734FF2A48007830B101280AD0022880
:1060000019D003282BD102E0FFF756FD27E0FFF758
:1060100053FD24E00020234908809DF800200888D3
:10602000411C204B198020490A5402201C49087049
:10603000FFF742FD13E01B480088FF2809DC9DF8AC
:10604000002018490888411C164B198016490A542B
:1060500002E0032012490870FFF72EFD00BF00BFC9
:10606000204638BD2C0000202E2E5C555345525C36
:106070006D6F646275735C7274755C6D6272747559
:106080002E63000065536E645374617465203D3D5A
:106090002053544154455F54585F49444C450000D7
:1060A0002D00002036000020E001002010B5002463
:1060B0001648007820B1022807D003280BD109E048
:1060C0000020FFF7BFFE044618E00120FFF7BAFEEC
:1060D000044613E012E00D48007838B10B48007810
:1060E000022803D009480078032800D105E040F2D7
:1060F0005B1207A10D48FEF799F800BF00BFFFF73C
:10610000C5FC012001490870204610BD2D0000206B
:106110002E2E5C555345525C6D6F646275735C72D4
:1061200074755C6D627274752E630000FC63000808
:1061300010B500241B480078012800D105E04FF479
:10614000917219A11FA0FEF771F82548007810B1CF
:10615000012824D104E000210120FFF773FC1EE098
:106160002048008878B1204909680878FFF7E2FEE6
:106170001D480068401C1C4908601A480088401EE1
:10618000184908800AE00320FFF75CFE044600215E
:106190000120FFF757FC00201149087000BF00BF25
:1061A000204610BD2D0000202E2E5C555345525C1C
:1061B0006D6F646275735C7274755C6D6272747518
:1061C0002E630000655263765374617465203D3D13
:1061D0002053544154455F52585F49444C45000098
:1061E0002C000020340000203000002010B5FEF705
:1061F00063F94FF00001016010BD00C1814001C092
:10620000804101C0804100C1814001C0804100C186
:10621000814000C1814001C0804101C0804100C176
:10622000814000C1814001C0804100C1814001C066
:10623000804101C0804100C1814001C0804100C156
:10624000814000C1814001C0804100C1814001C046
:10625000804101C0804100C1814000C1814001C036
:10626000804101C0804100C1814001C0804100C126
:10627000814000C1814001C0804101C0804100C116
:10628000814000C1814001C0804100C1814001C006
:10629000804101C0804100C1814000C1814001C0F6
:1062A000804101C0804100C1814001C0804100C1E6
:1062B000814000C1814001C0804100C1814001C0D6
:1062C000804101C0804100C1814001C0804100C1C6
:1062D000814000C1814001C0804101C0804100C1B6
:1062E000814000C1814001C0804100C1814001C0A6
:1062F000804101C0804100C1814000C0C101C30391
:1063000002C2C60607C705C5C404CC0C0DCD0FCF0D
:10631000CE0E0ACACB0BC90908C8D81819D91BDB7D
:10632000DA1A1EDEDF1FDD1D1CDC14D4D515D717CD
:1063300016D6D21213D311D1D010F03031F133F37D
:10634000F23236F6F737F53534F43CFCFD3DFF3FCD
:106350003EFEFA3A3BFB39F9F83828E8E929EB2BFD
:106360002AEAEE2E2FEF2DEDEC2CE42425E527E78D
:10637000E62622E2E323E12120E0A06061A163A3FD
:10638000A26266A6A767A56564A46CACAD6DAF6F8D
:106390006EAEAA6A6BAB69A9A86878B8B979BB7BFD
:1063A0007ABABE7E7FBF7DBDBC7CB47475B577B74D
:1063B000B67672B2B373B17170B05090915193537D
:1063C000529296565797559594549C5C5D9D5F9F4D
:1063D0009E5E5A9A9B5B99595898884849894B8B7D
:1063E0008A4A4E8E8F4F8D4D4C8C4484854587470D
:1063F00046868242438341818040000028206552C6
:1064000063765374617465203D3D20535441544577
:106410005F52585F494E49542029207C7C20282017
:10642000655263765374617465203D3D2053544139
:1064300054455F52585F5243562029207C7C2028C7
:1064400020655263765374617465203D3D2053543A
:106450004154455F52585F4552524F522029000027
:106460002820655263765374617465203D3D205346
:10647000544154455F52585F5243562029207C7C3A
:10648000202820655263765374617465203D3D2059
:1064900053544154455F52585F574149545F454FEB
:1064A00046202900C464000800000020E00100002C
:1064B00028410008EC650008E0010020800700008A
:1064C00084410008812D0102030404100906070815
:1064D0000902040608ACA24A041C2918C13202327F
:1064E0001113C9512A082913675033080313DB4FCE
:1064F0003308101333533308061361523308171A45
:10650000F320320113814E3308051AF138320F1A85
:10651000A320294C1A2F38016813E0010210201A19
:1065200001D212031204120512061A078B12091265
:106530000A120B120C120D120E120F1A10EC12127C
:106540001213121412151216121712181219121A07
:10655000121B121C121D121E1A1F4F122112221280
:1065600023122412251226122712281229122A1267
:106570002B122C122D122E122F1230123112321217
:1065800033123412351236123712381239123A12C7
:106590003B123C123D123E123F1240124112421277
:1065A00043124412451246124712481249124A1227
:1065B0004B124C124D124E124F12501251125212D7
:1065C00053125412551256125712581259125A1287
:1065D0005B125C125D125E125F1260126112621237
:0C65E0006352643A08E03A640D000000C9
:04000005080040EDC2
:00000001FF
