:020000040800F2
:104000009004002045410008AD500008994B00087D
:1040100059500008A9490008DD56000800000000BA
:104020000000000000000000000000002552000811
:10403000AB49000800000000C5500008CD52000840
:104040005F4100085F4100085F4100085F410008D0
:104050005F4100085F4100085F4100085F410008C0
:104060005F4100085F4100085F4100085F410008B0
:104070005F4100085F4100085F4100085F410008A0
:104080005F4100085F4100085F4100085F41000890
:104090005F4100085F4100085F4100085F41000880
:1040A0005F4100085F4100085F4100085F41000870
:1040B0005F4100085F4100085F4100085F41000860
:1040C0005F4100085F4100085F4100085F41000850
:1040D0005F4100085F4100085F4100085F41000840
:1040E0005F4100085F4100085F4100085F41000830
:1040F0005F4100085F4100085F4100085F41000820
:104100005F4100085F4100085F4100085F4100080F
:104110005F4100085F4100085F4100085F410008FF
:104120005F4100085F4100085F4100085F410008EF
:10413000DFF80CD000F026FC00480047F15B0008D7
:10414000900400200648804706480047FEE7FEE747
:10415000FEE7FEE7FEE7FEE7FEE7FEE7FEE7FEE737
:10416000D152000831410008F0B480EA0102D20FB8
:104170004300B3EB410F02D20346084619464B00F9
:1041800042D0C30DDDB2C1F3C7542C1B202C35DA4D
:10419000C1F3160141F4000502B16D42C4F12006DD
:1041A00005FA06F125412844B3EBD05F23D0C2B114
:1041B000012CA0EBC35009DCF0BC4FF0004202EA36
:1041C000C35200F50000DBB200F0E7BA400000F196
:1041D000807000EBC350A0F1807040EAD1704900BC
:1041E00009E0490841EAC071A0EBC35000F50000A6
:1041F000400800EBC350F0BC00F0C6BA51420123A6
:1042000003EB4101801AF6E7F0BC704781F00041F2
:10421000AAE780F00040A7E780EA010210B502F0AB
:104220000042400026D04B0023D04FEA106101EB42
:104230001361C0F35600C3F3560340F4000043F487
:104240000003A0FB0330A1F17F014FEA00401C04F2
:1042500001D000F1010050EA134001D44000491E92
:10426000C3B20C0604EBD010401C4008802B02D0D7
:1042700003E0002010BD20F00100002900DA00203A
:10428000104310BD80EA010202F0004330B430F068
:10429000004221F0004015D0A0B1C0F3C755C2F3D1
:1042A000C754C2F31601C0F31600651B41F40001A8
:1042B00040F400007D35814201D36D1C00E04900CF
:1042C000002D02DA30BC002070474FF400020024B9
:1042D000814201D3091A144352084FEA4101F7D130
:1042E00051B1814202D14FF0004105E002D24FF0BE
:1042F000010101E06FF0010104EBC55030BC18442E
:1043000000F042BA420005D0C0F3C7525242914277
:1043100001DC0020704700EBC15070472DE9FE4FD3
:10432000074681EA0300C00F0E46019021F00041CC
:1043300023F00044B81AA14105D238463146174649
:104340001E460B46024623F00040104304D1384677
:10435000314603B0BDE8F08F350DC5F30A00C3F355
:104360000A510290401A0090402868DAC3F3130003
:1043700040F4801B0198924620B10023D2EB030A3F
:1043800063EB0B0B00985946C0F14002504600F019
:10439000CAF980460C4650465946009A00F0E2F9A8
:1043A000C0197141EF1785EA11533B4340D0019A80
:1043B00052B3009A012A11DC0022801A4FF0004308
:1043C00061EB055103EA05538018CDE9002341F55F
:1043D00080114246234600F01AFABAE72E0500255E
:1043E000401B61EB0601401941F580120018524153
:1043F0002818A6F5001343EB020140EAD4702943C4
:1044000018EB0808644113E064084FEA38084FF0DD
:10441000000244EAC0744FEA0553801A61EB0301BD
:10442000801841F5801149084FEA30008018594141
:104430004246234603B0BDE8F04F00F0DBB90198D7
:10444000012240000023D0EB020263EBE0730198ED
:104450004FEAE074381A66EB0401EBE783F000439F
:104460005CE781F0004159E72DE9FE4F81EA030442
:1044700021F0004504F0004423F000414FF0000A11
:10448000009450EA050302D052EA010304D100204F
:10449000014603B0BDE8F08FC1F30A53C5F30A54D7
:1044A0001C44A0FB02B3C5F3130545F4801CC1F303
:1044B000130141F480180CFB023300FB083EA4F208
:1044C000F334810A930A41EA8C5143EA88530194F8
:1044D000A1FB03474FEA9C2505FB03734FEA98268F
:1044E00001FB06373D05260545EA1435BBEB060101
:1044F0006EEB0503850E920E45EA8C1542EA881292
:10450000A5FB0206261E67EB00070C0D44EA0334E8
:10451000A41947EB1350C1F313064FF000031946DB
:104520004FEA033343EA165343EA0403019CE5FBD5
:104530000201A4F10C040294009C4FEA0632CDE97A
:1045400000A400F064F9A4E72DE9F04D81EA03042A
:1045500004F0004B21F0004714464FF0000A23F00E
:10456000004150EA070220D054EA01021DD0C1F3F5
:104570000A550246C1F31300C7F30A56C7F31303E3
:1045800040F4801143F48013A6EB0508101BD646B7
:1045900008F2FD3873EB010002D308F1010801E0D5
:1045A00092185B41B8F1000F03DA00200146BDE824
:1045B000F08D00204FF48015064607460EE0B2EB62
:1045C000040C73EB010C04D3121B064363EB0103D1
:1045D0002F436D084FEA300092185B4150EA050CFA
:1045E000EDD152EA030012D082EA040083EA010509
:1045F000284303D100224FF0004308E0101B8B41F9
:1046000002D20122002302E06FF0010253101AEBE4
:10461000060047EB085110EB0A0041EB0B01BDE827
:10462000F04D00F0E7B8C10F80EAE0700844CA0717
:104630009623002100F0B1B80EB540F2334102914B
:104640000021CDE900110A460B4600F0E0F803B066
:1046500000BD00F0004220F00040C10DC0F3160084
:1046600040F400007F2901DA00207047962903DC1E
:10467000C1F19601C84001E096398840002AF4D083
:104680004042704770B5C1F30A5201F00045002462
:10469000C1F3130140F2FF3341F480119A4201DA71
:1046A000002070BD40F233439A42A2F2334203DC51
:1046B000524200F047F800E090402C43F1D04042D5
:1046C00070BD00F0004230F000400DD0C10D01F58A
:1046D000607142EA01510022C0F31600520742EA1B
:1046E000D00240071143704700200146704701F097
:1046F000004230B421F0004150EA010306D00B0D16
:10470000A3F56073C1F31301002B02DC30BC002061
:104710007047440F44EAC104C100A01830BC00EB4C
:10472000C35000F031B8202A04DB203A00FA02F12D
:10473000002070479140C2F1200320FA03F319438F
:1047400090407047202A04DB203A21FA02F0002131
:10475000704721FA02F3D040C2F120029140084391
:1047600019467047202A06DBCB17203A41FA02F09F
:1047700043EAE071704741FA02F3D040C2F12002EF
:1047800091400843194670470029A8BF7047401C54
:10479000490008BF20F00100704710B4B0FA80FC57
:1047A00000FA0CF050EA010404BF10BC704749B194
:1047B000CCF1200421FA04F411FA0CF118BF012104
:1047C00021430843A3EB0C01CB1D0106000A002B7B
:1047D000BEBF002010BC704700EBC350104400293E
:1047E000A4BF10BC7047401C490008BF20F0010066
:1047F00010BC704710B5002B08DA401C41F10001D5
:1048000092185B411A4301D120F0010010BD2DE93F
:10481000F04D92469B4611B1B1FA81F202E0B0FA36
:1048200080F220329046FFF77EFF06460F4640EAB0
:104830000A0041EA0B0152465B46084303D1304669
:104840003946BDE8F08D194652EA010015D0C8F18D
:1048500040025046FFF776FF04460D465046594643
:104860004246FFF760FF084301D0012000E000202E
:10487000044345EAE07526432F430A984FEAD625BC
:10488000A0EB08000A304FEA46534FF0000245EA19
:1048900047554FEAD72402D500200146D1E701054C
:1048A00050196141DDE9084500196941BDE8F04D45
:1048B000A0E770B521F0004303430CD0C1F30A54C4
:1048C0000026D4EB060566EB0603D417AD1AA34108
:1048D00002DB0020014670BD001C41EB025170BD9F
:1048E0002DE9F04D00231A461B1A8A4103DB0020F4
:1048F0000146BDE8F08DC1F30A52C1F3130141F442
:1049000080154FF0000BD10702D100186D41521EE7
:104910000026044640F2FF11304601EB620A37469A
:104920008046024600204FF48011FFF70BFF8019EC
:104930007941331847EB0102B4EB030C75EB020C21
:1049400004D3E41A65EB020506460F46241908F164
:1049500001006D4180463428E3DDB11947EB0700C3
:10496000091BA84103D24FF0FF32134601E0002299
:1049700013461BEB060047EB0A51BDE8F04DFFF76D
:1049800039BF0000064C074D06E0E06840F0010327
:1049900094E8070098471034AC42F6D3FFF7CCFBFD
:1049A000285F0008485F0008FEE77047F0B5CC7844
:1049B000002204F00F03E40601D58C7823430C8811
:1049C0004FF00F0C14F0FF0F4FF0010E1AD00568D6
:1049D0000E880EFA02F42640A6420FD196000CFA79
:1049E00006F7BD4303FA06F63543CE78282E02D0EB
:1049F000482E02D002E0446100E00461521C082A03
:104A0000E6D305600A88FF2A1DD94568002202F115
:104A100008060EFA06F40E882640A6420FD196002C
:104A20000CFA06F725EA070703FA06F5CE783D43A8
:104A3000282E00D14461CE78482E00D10461521C4A
:104A4000082AE4D34560F0BDF0B5144C002801DA23
:104A5000E36900E06368420D120185B2C0F30157BB
:104A60009540C0F30346032F05D0C2020AD50322A6
:104A7000B240934307E023F07062636823F07063F1
:104A8000636002E0AB4343F0706201B12A43002847
:104A900001DAE261F0BD6260F0BD0000000001409B
:104AA0000246002092680A4200D00120704741610E
:104AB0007047016170474FF6FF71018002218170DC
:104AC0000421C170704700002DE9F04385B0814694
:104AD00002A800F01AF9BDF90800FFF7A4FD04468A
:104AE000BDF90A00FFF79FFD0646BDF90C00FFF770
:104AF0009AFD0746BDF91000832190FBF1F0FFF706
:104B000092FD054621460846FFF786FB04463146DE
:104B10000846FFF781FB2146FFF726FBFFF7D1FD93
:104B200001F090F904460E4687F00040FFF7C9FDFA
:104B300022463346FFF708FD00F058FE0022124BD4
:104B4000FFF792FC114A124BFFF7FEFCFFF7CFFD77
:104B5000804610480068A0EB0900FFF76DFD06468F
:104B60000F462846FFF7ADFD04460D464046FFF7C9
:104B7000A8FD22462B46CDE9006700F049FF05B0AD
:104B8000BDE8F043FFF77EBD008066406E861BF0F7
:104B9000F921094000000020FEE70029018802D029
:104BA00041F4806101E021F4806101807047034697
:104BB00000209A8A1B8B42EA034222F07F429143F3
:104BC00000D1012070470029018802D041F0010185
:104BD00001E021F00101018070470029018802D025
:104BE00041F4807101E021F4807101807047002957
:104BF000018802D041F4007101E021F400710180CC
:104C0000704700220B0F21F07F4101D0143001E0EA
:104C1000090C18300068084200D001221046704785
:104C200070B50446808886B00D4620F03F06684681
:104C300000F0ACFA26490298B0FBF1F189B20E43BC
:104C4000A680228822F001022280224B2A689A4202
:104C50001CD85200B0FBF2F080B2042800D204202D
:104C6000491C2184A083208840F0010020802088F6
:104C70004FF6F5310840A9886A8911430143218024
:104C8000A88929890843208106B070BDEB88A3F567
:104C90003F46FF3E05D102EB4202B0FBF2F080B28C
:104CA00008E002EBC20303EB0212B0FBF2F080B2A9
:104CB00040F48040020501D140F001004FF49672AB
:104CC00051434FF47A72B1FBF2F140F40040C7E770
:104CD00040420F00A0860100008AC0B2704712B1A6
:104CE00041F0010101E001F0FE0101827047018203
:104CF00070471CB501A8062300901A467521D020E4
:104D000000F02DF99DF804001CBD1FB504460E23CC
:104D10003B226946D02000F01FF80021684600EBD6
:104D2000410310F811205B7803EB022224F81120D4
:104D3000491C0329F3DB042100EB410310F8112087
:104D40005B7803EB022204EB4103491C23F8022C9D
:104D50000729F1DB1FBD00002DE9F047374F8246E0
:104D60000D4691461C464FF4003631463846FFF753
:104D700048FF0028F9D101213846FFF72EFF304EB9
:104D800038463146FFF713FF0028F9D0002251467C
:104D90003846FFF7A4FFDFF8AC8038464146FFF7FE
:104DA00006FF0028F9D001213846FFF70CFF4946DD
:104DB0003846FFF79CFFDFF88C8008F10208414677
:104DC0003846FFF7F4FE0028F9D001213846FFF7F6
:104DD00004FF31463846FFF7EAFE0028F9D00122E9
:104DE00051463E463846FFF77AFF154F7F1C39463D
:104DF0003046FFF7DCFE0028F9D0114F3F37BCB139
:104E0000012C07D100213046FFF7C7FE01213046B3
:104E1000FFF7EDFE39463046FFF7C9FE0028EED019
:104E20003046FFF759FF641E05F8010BA4B2E6E710
:104E30003046BDE8F0470121FFF7AFBE0054004007
:104E400001000300820007002DE9F0411B4C0746DA
:104E50000D46904601212046FFF7BFFE184E204622
:104E60003146FFF7A4FE0028F9D00022394620463B
:104E7000FFF735FF134E20463146FFF798FE002816
:104E8000F9D041462046FFF732FF26460D4CA41CC0
:104E900021463046FFF78BFE0028F9D029783046AE
:104EA000FFF725FF21463046FFF781FE0028F9D0A5
:104EB0003046BDE8F0410121FFF799BE00540040A3
:104EC000010003008200070010B5012186B04805EB
:104ED00000F044F90121082000F04CF9C020ADF8A1
:104EE000100003208DF812001C208DF8130004A977
:104EF0001048FFF75BFD0020ADF804004BF6FF7093
:104F0000ADF80600D020ADF808004FF48060ADF891
:104F10000A000001ADF80C000748084C00906946F3
:104F20002046FFF77DFE01212046FFF74CFE06B02C
:104F300010BD0000000C0140801A06000054004023
:104F400010B5012000F023F8002000F032F8002016
:104F500000F026F8BDE81040002000F033B8F8B5A6
:104F600016461D460A4601236946069CFFF7F4FED5
:104F70000120A840401E711B491C8840C2B29DF808
:104F800000001040C8408DF800002070F8BD08B542
:104F90000323009002226B21D02000F03CF808BDD2
:104FA00008B50223009004221C21D02000F033F821
:104FB00008BD08B50223009004221B21D02000F078
:104FC0002AF808BD034606226B21D02000F009B85C
:104FD00010B5FFF78EFE342801D0002010BD01204F
:104FE00010BDF8B515461C460E460A460746012375
:104FF0006946FFF7B1FE01209DF80010A8400CB1F2
:10500000014300E081438DF800103246694638467E
:10501000FFF71AFFF8BD2DE9F843164688461C46EF
:105020000A46074601236946089DFFF795FE0120C1
:10503000A040401E311B491C88408D409DF8001047
:105040000540814329438DF80010424669463846A1
:10505000FFF7FAFEBDE8F883FEE7000010B5084A46
:105060000C4600284FF40071104602DAFFF71FFDCE
:1050700001E0FFF71EFD4FF08040848710BD000067
:10508000000C014010B5074A0C4600284FF480710F
:10509000104602DAFFF70BFD01E0FFF70AFD0248B8
:1050A000048010BD000C014040000040704700002B
:1050B000024A1140014302480160704780FFFF1F10
:1050C00008ED00E070470000F8B50121092000F06C
:1050D00051F86846FFF7EFFC4FF44070ADF8000060
:1050E00003241C4E8DF8024010258DF803506946AC
:1050F0003046FFF75BFC6846FFF7DDFCA002ADF829
:1051000000008DF8024018208DF8030069463046F3
:10511000FFF74CFC01211048FFF796FC6846FFF7AB
:10512000CAFCADF800508DF8024028208DF803002D
:1051300069463046FFF73AFC6846FFF7BCFCADF81D
:1051400000408DF802408DF8035069463046FFF765
:105150002DFCF8BD000C014000023000044A00297B
:10516000D16901D0014300E08143D1617047000063
:1051700000100240044A0029916901D0014300E077
:10518000814391617047000000100240214A10B530
:105190005168214B11F00C0103D0042901D00829DA
:1051A00001D0036012E05168536801F470114FF0B0
:1051B000020413F4803F04EB914102D053689B0337
:1051C00001D5164B00E0144B594301605168144B54
:1051D00001F0F00109095C5C0168E140416054683C
:1051E00004F4E064240A1C5D21FA04F48460546829
:1051F00004F46054E40A1B5DD940C1605268084B56
:1052000002F44042920B1B1F9A5CB1FBF2F1016168
:1052100010BD00000010024000127A0000093D009D
:10522000640000207047000002480168491C0160CA
:105230007047000000000020224900200A6842F464
:1052400080320A604FF4A0630A6800F1010012F492
:10525000003F01D19842F7D10868800330D51A4841
:10526000026842F010020260026822F0030202604B
:10527000026842F00202026048684860486848607C
:10528000486840F480604860486820F47C104860BA
:10529000486840F4E8104860086840F08070086092
:1052A00008688001FCD5486820F003004860486821
:1052B00040F0020048604868C0F381000228FAD13B
:1052C000704700000010024000200240FFF7ACBF12
:1052D0000F4810B5016841F00101016041680D4AB5
:1052E0001140416001680C4A11400160016821F4DD
:1052F00080210160416821F4FE0141604FF41F01EB
:105300008160FFF799FF05494FF00060086010BD0C
:10531000001002400000FFF8FFFFF6FE08ED00E07D
:1053200010B5012188B00846FFF718FF0121184881
:10533000FFF78AFB04A800F0FBF84FF40070ADF80B
:10534000160040F2E730ADF81400EF20ADF8100081
:105350004FF0804404A9204600F09CF8684600F015
:105360008FF80121ADF802106021ADF80010002186
:10537000ADF806106946204600F016F8694620464A
:1053800000F04EF80121204600F004F808B010BDEE
:10539000000318000029018802D041F0010101E05A
:1053A00021F001010180704730B5028C22F4807237
:1053B0000284028C8388848B22F4007224F07305AB
:1053C0000C882C430D892D0642EA15454A881206A1
:1053D00045EA1242104DA84202D0104DA84215D104
:1053E00022F400654A8923F44053120645EA12422A
:1053F00022F480658A88120645EA12428D892D05BD
:1054000043EA1545CB891B0545EA13438380848312
:10541000C9888187028430BD002C014000340140DE
:1054200030B5028C22F480520284048C8288838BF3
:1054300023F4E6450B881B0645EA134324F4005584
:105440000C89240745EA14444D882D0744EA154584
:10545000094CA04202D0094CA04205D122F480445C
:105460008A89920544EA124282808383C988A0F81F
:105470004010058430BD0000002C01400034014084
:105480000021018041808180C18001814181818131
:10549000C181704730B502881B4C1C4DA0420DD015
:1054A000A8420BD0B0F1804F08D0194B984205D0DC
:1054B000184B984202D0184B984203D122F0700347
:1054C0004A881A43154B984206D0154B984203D090
:1054D00022F44073CA881A4302808A8882850A8827
:1054E0000285A0420AD0A84208D00E4A904205D0B8
:1054F0000D4A904202D00D4A904201D1097A0186AC
:105500000121818230BD0000002C014000340140A7
:105510000004004000080040000C00400010004063
:105520000014004000400140004401400048014098
:105530004FF6FF71818000210180C180418001729E
:105540007047000030B585B0012144F20400FFF738
:1055500011FE4FF40070ADF8100018208DF8130004
:10556000164D03248DF8124004A92846FFF71EFAB1
:105570002915ADF8101004208DF813008DF8124095
:1055800004A92846FFF712FA4FF496400090002035
:10559000ADF80400ADF80600ADF80800ADF80C0059
:1055A0000C20074CADF80A006946204600F038F898
:1055B0000121204600F022F805B030BD000801406E
:1055C0000038014070B505460024285D002804D04D
:1055D000641C00F003F8402CF7DB70BD10B5064CDE
:1055E0000146204600F076F84021204600F010F8F1
:1055F0000028F9D010BD0000003801400029818941
:1056000002D041F4005101E021F400518181704742
:105610000246002012880A4200D001207047000094
:1056200030B50D46018A85B004464CF6FF70014046
:10563000E88808432082A0894EF6F3110840A98823
:105640002A8911436A8902431143A181A18A4FF635
:10565000FF400140A8890843A0826846FFF796FDF5
:105660001B48844201D1039800E00298A1890904F3
:10567000002900EBC00101EB0010296802DA4FEAB3
:10568000410101E04FEA8101B0FBF1F06422B0FB7F
:10569000F2F14FEA01114FEA11136FF018056B4355
:1056A00000EB8300A3891D044FF0320306D503EB02
:1056B000C000B0FBF2F000F0070005E003EB0010C3
:1056C000B0FBF2F000F00F000843208105B030BDC0
:1056D00000380140C1F3080181807047FEE74900AE
:1056E00050EAC12018BF04204A0D18BF40F0010045
:1056F00040F2FF72B2EB515F08BF40F00200012898
:1057000008BF052070472DE9F0414F1E00EBC7018F
:105710000446D1E9000115461E4637F006020DD0B9
:105720002A463346FEF7A0FE7F1E04EBC703D3E9EB
:105730000023FEF7F3FD37F00602F1D1022F25D04A
:10574000042F13D0062F18BFBDE8F0812A46334638
:10575000FEF78AFED4E90A23FEF7E0FD2A46334627
:10576000FEF782FED4E90823FEF7D8FD2A46334629
:10577000FEF77AFED4E90623FEF7D0FD2A4633462B
:10578000FEF772FED4E90423FEF7C8FD2A4633462D
:10579000FEF76AFED4E90223FEF7C0FD2A4633462F
:1057A000FEF762FED4E90023BDE8F041FEF7B6BD86
:1057B000024A00201107FFF77CB8000001FDFFFF3F
:1057C00002E008C8121F08C1002AFAD170477047CA
:1057D000002001E001C1121F002AFBD17047000028
:1057E0000149086070470000880000202DE9F84F4B
:1057F00004460D4621F0004000917449884213DBB5
:105800007349884201DC08D13CB120462946BDE8F5
:10581000F84F4FF00102FFF74CB86E48002DCCBF97
:105820006D496E49BDE8F88F6D49884211DA6D49BE
:105830008842A8BF4FF0FF366DDA20462946FFF7B1
:105840004EFF042808BFFFF7B3FF20462946BDE8F6
:10585000F88F6549DFF894A125F00045884232DAD7
:105860006349884219DA002632464FF080432046C9
:105870002946FEF753FD0746884601222046294661
:10588000FFF717F800225346FEF7E8FD3A46434675
:10589000FEF75AFE04460D463DE00126002253461F
:1058A00020462946FEF73AFD074688460022534621
:1058B00020462946FEF7D2FD43463A46FEF744FE0F
:1058C00004460D4627E04B4988421BDADFF8288161
:1058D00002260022434620462946FEF7C5FD002247
:1058E0005346FEF71BFD82460F46002243462046E4
:1058F0002946FEF7B3FD52463B46FEF725FE044619
:105900000D4608E0032622462B4600203B49FEF7C1
:105910001BFE04460D4622462B4610461946FEF74E
:10592000A3FD8B46824602460B46FEF79DFD0746C9
:105930000246334888460B4606217844FFF7E3FECB
:1059400052465B46FEF790FD82462E488B463A460D
:10595000434605217844FFF7D6FE3A464346FEF714
:1059600083FD02460B46002E504659460CDAFEF7E0
:10597000D5FC22462B46FEF777FD01B022462B468A
:10598000BDE8F04FFEF76DBDFEF7C8FC22462B4682
:10599000FEF76AFD1C4A7A4402EBC603D3E90023F2
:1059A000FEF75CFD22462B46FEF758FD174A7A4467
:1059B00002EBC603D3E90023FEF753FD009A002A49
:1059C000B8BF81F00041BDE8F88F0000000010442E
:1059D0000000F07F182D4454FB21F93FFB21F9BF53
:1059E0000000DC3F0000203E0000F33F0000F03FDD
:1059F0000000E63F008003400000F83F0000F0BFD9
:105A0000BA0500007805000016050000DE0400005D
:105A10002DE9FF5F8CB01746DDE91A019846002298
:105A20006B4BFEF791FD6B4C05460E46C4E90E012B
:105A3000D4E9042338464146CDE90623FEF70EFD9E
:105A40002A463346FEF710FDD4E90223FEF766FC32
:105A50000A91D4E908238346CDE90423D4E90A0155
:105A6000CDE90201FEF75AFC2A463346FEF7FCFC5C
:105A700007468846584A594B28463146FEF7F4FCFB
:105A80003A464346FEF7EAFCD4E90623FEF746FC15
:105A9000D4E90C230746894628463146CDE9002340
:105AA000FEF7E2FCDDE9042380468A46FEF7D9FCD6
:105AB000CDE90401DDE9022340465146FEF7D1FC61
:105AC000CDE90201464A474B28463146FEF7CCFC59
:105AD000DDE90023FEF722FCCDE90801424A434BF1
:105AE00049463846FEF71AFCC4E9120105460E463F
:105AF0002A46334649463846FEF726FDC4E91401D6
:105B000080468A46DDE902012A463346FEF71CFD3F
:105B1000C4E9160105460E46DDE90C015A460A9B0A
:105B2000FEF79CFCC4E91001CDE900014246534652
:105B3000FEF79AFC5A460A9BFEF7F0FBC4E9020105
:105B40000A90DDE900238B4628463146FEF78CFC9F
:105B5000DDE90623FEF7E2FBC4E904014B463A46C1
:105B600040465146FEF780FC4B463A46FEF779FC2C
:105B7000C4E90601DDE9042307468946404651464B
:105B8000FEF772FCDDE90423FEF76BFCC4E90801B3
:105B900080468A463A464B4628463146FEF764FC24
:105BA000DDE90223FEF75DFCC4E90A0142465346E3
:105BB00028463146FEF758FCDDE90823FEF751FC84
:105BC000C4E90C010A9810B05946BDE8F09F0000E6
:105BD00080842E4100000020FCA9F1D24D62503F8C
:105BE000FA7E6ABC7493683FB81E85EB51B89E3F3D
:105BF0000EB54FF000086E484FF4804100904FF012
:105C00007C57DFF8B0A14546464644464803FFF7B7
:105C10004FFA694869490068B0FBF1F0B0F1807F44
:105C20007DD220F07F404FF0E021401E4861644A61
:105C3000F0204FF0FF3910700020886107200861C4
:105C4000FFF742FA00210120FFF708FA00210120A6
:105C5000FFF718FAFFF776FCFFF762FB59A0FFF792
:105C6000B1FC59A0FFF7AEFC5DA0FFF7ABFCFFF75E
:105C70002BF9FFF765F9FFF7ABF9002850D05FA0CB
:105C8000FFF7A0FC10216348FEF70AFF0028F9D0B7
:105C900050466149FEF7F6FA019038465E49FEF734
:105CA000BBFA02904046FEF70FFFFEF7BCFC5B49D3
:105CB000D1F8008037462E46054601464FF0414058
:105CC000FEF7A4FA824601213046FEF71BFB294667
:105CD000FEF79FFA3946FEF747FA01464E4F029803
:105CE000FEF79AFA834651460198FEF795FA8246E6
:105CF00031462846FEF78AFA0099FEF78DFA2146CA
:105D0000FEF787FA5146FEF72FFA5946FEF77EFA5C
:105D100004464348844207DD044616E0FFE7FEE7F9
:105D200040A0FFF74FFCFEE74348844201D90446F8
:105D300023E014F1FF4F16D24048844205DA0021D7
:105D40000120FFF78BF900210BE039462046FEF7D2
:105D50000BFAFEF77EFC074601460120FFF77EF9AD
:105D60003946012017E03648844206D200214F46CA
:105D70004846FFF773F900210CE021463846FEF74C
:105D800045FAFEF766FC824601464F464846FFF755
:105D900065F951463846FFF775F91E480C30016821
:105DA00081F0010101604FF6F270401EFDD179E7EC
:105DB0000000F040000048417400002040420F0005
:105DC00023ED00E00A0D000042616C616E63696EB4
:105DD0006720726F626F742064656D6F2E0A0D000C
:105DE000496E697469616C697A696E67204D5055B6
:105DF0002D363035302E0A0D00000000436F6E6ED8
:105E0000656374696F6E2073756363657373210ACC
:105E10000D000000000C014000004842000000207E
:105E200000007F43436F6E6E656374696F6E20651B
:105E300072726F72210A0D0000007FC30000A04043
:105E40000000A0C02DE9F04106460F46FEF748FDD0
:105E50000D46040018BF0120284320F00040C0F187
:105E60007F6010F1E0400FD5002E14BF012000200C
:105E7000384320F00040C0F17F6000F1E04000288E
:105E8000A4BF0120FFF7ACFC20462946BDE8F08105
:105E90004FBB610567ACDD3F182D4454FB21E93F42
:105EA0009BF681D20B73EF3F182D4454FB21F93F31
:105EB000E2652F227F2B7A3C075C143326A6813CB7
:105EC000BDCBF07A8807703C075C143326A6913C62
:105ED000C4EB98999999C9BF711623FEC671BCBFCE
:105EE0006D9A74AFF2B0B3BF9AFDDE522DDEADBF36
:105EF0002F6C6A2C44B4A2BF0D5555555555D53F4E
:105F0000FF8300922449C23F6E204CC5CD45B73F68
:105F1000513DD0A0660DB13FEB0D76244B7BA93FE0
:105F200011DA22E33AAD903F485F000800000020FC
:105F30008C000000C0570008D45F00088C000020CF
:105F400004040000D057000800000000000000001A
:105F50000000000000000000000000000000000041
:105F60000000000000000000000000000000000031
:105F70000000000000000000000000000000000021
:105F80000000000000000000000000000000000011
:105F90000000000000000000000000000000000001
:105FA00000000000000000000204060800000000DD
:105FB00001020304010203040607080900A24A04BF
:105FC00000000000000000000102030406070809A9
:045FD00000000000CD
:04000005080041317D
:00000001FF
